:020000040800F2
:100000000000012099060008E9060008E90600083A
:10001000E9060008E9060008E906000800000000FB
:10002000000000000000000000000000E9060008D9
:10003000E906000800000000E9060008E9060008DB
:10004000E9060008E9060008E9060008E9060008D4
:10005000E9060008E90600087D050008F905000822
:10006000E9060008E9060008E9060008E9060008B4
:10007000E9060008E9060008E9060008E9060008A4
:10008000E9060008E9060008E9060008000000008B
:10009000000000000000000000000000E906000869
:1000A000E9060008E9060008E9060008E906000874
:1000B000E9060008E9060008E9060008E906000864
:1000C000E9060008E9060008E9060008E906000854
:1000D000E9060008E9060008E9060008000000003B
:1000E000E9060008E9060008E9060008000000002B
:1000F000000000000000000000000000E906000809
:1001000000000000E9060008E9060008E90600080A
:1001100000000000000000000000000000000000DF
:10012000E9060008E9060008E9060008E9060008F3
:10013000E9060008000000000000000000000000C8
:10014000000000000000000000000000E9060008B8
:10015000E9060008E9060008E9060008E9060008C3
:10016000E9060008E90600080000000000000000A1
:10017000000000000000000000000000000000007F
:1001800000000000E9060008000000000000000078
:04019000E906000874
:1001940010B5054C237833B9044B13B10448AFF3BD
:1001A40000800123237010BD5000002000000000D7
:1001B4003407000808B5034B1BB103490348AFF3E8
:1001C400008008BD0000000054000020340700082F
:1001D40080B483B000AF0346FB71084B1B68FA7907
:1001E400012101FA02F21146044A0B43136000BFD5
:1001F4000C37BD465DF8047B704700BF30380240C1
:1002040090B482B000AF0446084611461A4623460D
:10021400FB710346BB710B467B7113463B71FA7944
:10022400564913469B0013449B000B441B681968F2
:10023400BB795B00032202FA03F3DB431C46FA7921
:100244004E4813469B0013449B0003441B6801EA79
:1002540004021A60FA79494913469B0013449B002F
:100264000B441B6819687A79BB795B0002FA03F3C3
:100274001C46FA79414813469B0013449B000344EF
:100284001B6841EA04021A60FA793C4913469B0050
:1002940013449B000B4404331B681968BB79012287
:1002A40002FA03F3DB431C46FA79344813469B00F5
:1002B40013449B00034404331B6801EA04021A60DC
:1002C400FA792E4913469B0013449B000B440433D4
:1002D4001B6819683B7903F00102BB7902FA03F346
:1002E4001C46FA79254813469B0013449B0003449B
:1002F40004331B6841EA04021A60FA791F49134661
:100304009B0013449B000B4408331B681968BB799A
:100314005B00032202FA03F3DB431C46FA79174815
:1003240013469B0013449B00034408331B6801EAF3
:1003340004021A60FA79114913469B0013449B0086
:100344000B4408331B6819683B795B1003F0030204
:10035400BB795B0002FA03F31C46FA79074813469B
:100364009B0013449B00034408331B6841EA0402C6
:100374001A6000BF0837BD4690BC704700000020DB
:1003840090B484B000AF0346FB710B46BB711346B7
:100394007B71FA792C4913469B0013449B000B4450
:1003A4001B681B68BA795200032101FA02F21A4051
:1003B400BB795B0022FA03F3012B3DD17B79002B3F
:1003C4001BD0FA79204913469B0013449B000B442D
:1003D40010331B681968BB79012202FA03F31C4627
:1003E400FA79194813469B0013449B0003441033C5
:1003F4001B6841EA04021A601BE0FA7912491346A9
:100404009B0013449B000B4410331B681968BB7991
:10041400012202FA03F3DB431C46FA790A48134625
:100424009B0013449B00034410331B6801EA04023D
:100434001A600023FB7301E00123FB73FB7B184666
:100444001037BD4690BC70470000002080B400AF58
:10045400054B1B68044A43F48043136000BFBD4648
:100464005DF8047B704700BF4438024080B483B019
:1004740000AF0346FB71154B1B68FA79920001210A
:1004840001FA02F21146114A0B431360104B1B6828
:10049400FA79012101FA02F211460D4A0B43136065
:1004A4000C4B1B68FA79012101FA02F21146094A40
:1004B4000B431360FB79063301229A40064B1A6002
:1004C40000BF0C37BD465DF8047B70470838014017
:1004D400003C01400C3C014000E100E080B582B0EA
:1004E40000AF0020FFF774FE0120FFF771FEFFF755
:1004F400ADFF00237B6009E07B68D9B200230122B1
:100504000020FFF77DFE7B6801337B607B68062B50
:10051400F2DD0223002200210120FFF771FE0223F5
:10052400002201210120FFF76BFE0020FFF79EFF50
:100534000120FFF79BFF00233B6015E03B68D9B225
:100544000B4B1B781A460B4B53F822203B6822FABC
:1005540003F3DBB203F00103DBB21A460020FFF71A
:100564000FFF3B6801333B603B68062BE6DDFEE78B
:100574006C0000202800002080B582B000AF1A4B28
:100584001B78092B03D1184B09221A7005E0164B6E
:100594001B780133DAB2144B1A7000237B6015E028
:1005A4007B68D9B2104B1B781A46104B53F82220A3
:1005B4007B6822FA03F3DBB203F00103DBB21A46D1
:1005C4000020FFF7DDFE7B6801337B607B68062B30
:1005D400E6DD074B1B68064A43F00103136000BFC6
:1005E4000837BD4680BD00BF6C00002028000020F5
:1005F400143C014080B582B000AF1A4B1B78002B2D
:1006040003D1184B00221A7005E0164B1B78013BEE
:10061400DAB2144B1A7000237B6015E07B68D9B200
:10062400104B1B781A46104B53F822207B6822FA91
:1006340003F3DBB203F00103DBB21A460020FFF739
:100644009FFE7B6801337B607B68062BE6DD074BEE
:100654001B68064A43F00203136000BF0837BD4617
:1006640080BD00BF6C00002028000020143C014025
:1006740080B400AF064BD3F88830054A43F47003C6
:10068400C2F8883000BFBD465DF8047B704700BFE8
:1006940000ED00E0DFF834D00D480E490E4A002387
:1006A40002E0D458C4500433C4188C42F9D30B4A22
:1006B4000B4C002301E013600432A242FBD3FFF78A
:1006C400D7FF00F011F8FFF709FF70470000012081
:1006D40000000020500000205407000850000020B3
:1006E40070000020FEE7000070B50D4D0D4C641B3A
:1006F400A4100026A64209D10B4D0C4C00F018F8AA
:10070400641BA4100026A64205D170BD55F8043B15
:1007140098470136EEE755F8043B98470136F2E76F
:100724004C0700084C0700084C0700085007000855
:10073400F8B500BFF8BC08BC9E467047F8B500BFCA
:08074400F8BC08BC9E4670479A
:04074C00B9010008E7
:040750009501000807
:1007540000000240040002400C000240100002406D
:100764001400024000040240040402400C0402404D
:1007740010040240140402403F0000000600000080
:100784005B0000004F000000660000006D000000E8
:100794007D000000070000007F0000006F000000E3
:040000050800069950
:00000001FF
