:020000040800F2
:1000000000000120FD0C00084D0D00084D0D0008FA
:100010004D0D00084D0D00084D0D000800000000BA
:100020000000000000000000000000004D0D00086E
:100030004D0D0008000000004D0D00084D0D00089A
:100040004D0D00084D0D00084D0D00084D0D000828
:100050004D0D00084D0D00084D0D00084D0D000818
:100060004D0D00084D0D00084D0D00084D0D000808
:100070004D0D00084D0D00084D0D00084D0D0008F8
:100080004D0D00084D0D00084D0D0008000000004A
:100090000000000000000000000000004D0D0008FE
:1000A0004D0D00084D0D00084D0D00084D0D0008C8
:1000B0004D0D00084D0D00084D0D00084D0D0008B8
:1000C0004D0D00084D0D00084D0D00084D0D0008A8
:1000D0004D0D00084D0D00084D0D000800000000FA
:1000E0004D0D00084D0D00084D0D000800000000EA
:1000F0000000000000000000000000004D0D00089E
:10010000000000004D0D00084D0D00084D0D0008C9
:1001100000000000000000000000000000000000DF
:10012000ED0800084D0D00084D0D00084D0D0008AC
:100130004D0D00080000000000000000000000005D
:100140000000000000000000000000004D0D00084D
:100150004D0D00084D0D00084D0D00084D0D000817
:100160004D0D00084D0D00080000000000000000CB
:10017000000000000000000000000000000000007F
:10018000000000004D0D000800000000000000000D
:040190004D0D000809
:1001940010B5054C237833B9044B13B10448AFF3BD
:1001A40000800123237010BDD8010020000000004E
:1001B400980D000808B5034B1BB103490348AFF37E
:1001C400008008BD00000000DC010020980D00083C
:1001D40080B483B000AF03460A46FB711346BB717B
:1001E400084B1B68FA791532012101FA02F2114613
:1001F400044A0B43136000BF0C37BD465DF8047B13
:10020400704700BF30380240B0B483B000AF3B60E9
:100214000346FB710B46BB7113467B71F979BB79BD
:10022400B3481A4652001A44D3001A460B465B00E0
:100234000B449B01134403441B681868F979BB7988
:10024400AB4C1A4652001A44D3001A460B465B00C4
:100254000B449B01134423441B6820F0FF021A60E3
:10026400F979BB79A2481A4652001A44D3001A46B7
:100274000B465B000B449B011344034414331B687B
:100284001868F979BB799A4C1A4652001A44D3007B
:100294001A460B465B000B449B011344234414335E
:1002A4001B6820F0FF021A60F979BB7990481A465E
:1002B40052001A44D3001A460B465B000B449B01C0
:1002C400134403441B681868F979BB79884C1A46AF
:1002D40052001A44D3001A460B465B000B449B01A0
:1002E400134423441B6820F001021A60F979BB7996
:1002F4007F481A4652001A44D3001A460B465B0044
:100304000B449B01134403441B681868F979BB79B7
:10031400774C1A4652001A44D3001A460B465B0027
:100324000B449B01134423441B6840F440321A607D
:10033400F979BB796E481A4652001A44D3001A461A
:100344000B465B000B449B01134403441B681C686D
:100354003B6A9801F979BB79654D1A4652001A44F3
:10036400D3001A460B465B000B449B0113442B44F9
:100374001B6844EA00021A60F979BB795C481A46A2
:1003840052001A44D3001A460B465B000B449B01EF
:10039400134403441B681C687B6A5803F979BB79CE
:1003A400534D1A4652001A44D3001A460B465B00BA
:1003B4000B449B0113442B441B6844EA00021A605B
:1003C400F979BB794A481A4652001A44D3001A46AE
:1003D4000B465B000B449B01134403441B681C68DD
:1003E4007B6AD802F979BB79414D1A4652001A4406
:1003F400D3001A460B465B000B449B0113442B4469
:100404001B6844EA00021A6097F82830002B71D068
:10041400012B40F0B680F979BB7935481A46520071
:100424001A44D3001A460B465B000B449B01134449
:10043400034414331B681868F979BB792C4C1A46A9
:1004440052001A44D3001A460B465B000B449B012E
:100454001344234414331B6840F004021A60F979EE
:10046400BB7923481A4652001A44D3001A460B4655
:100474005B000B449B011344034414331B6818684A
:10048400F979BB791A4C1A4652001A44D3001A4619
:100494000B465B000B449B011344234414331B6839
:1004A40040F003021A60F979BB7911481A465200E8
:1004B4001A44D3001A460B465B000B449B011344B9
:1004C400034414331B681868F979BB79084C1A463D
:1004D40052001A44D3001A460B465B000B449B019E
:1004E4001344234414331B6840F001021A6048E0AB
:1004F40000000020F979BB79A7481A4652001A4433
:10050400D3001A460B465B000B449B01134403447F
:1005140014331B681868F979BB799F4C1A4652004A
:100524001A44D3001A460B465B000B449B01134448
:10053400234414331B6820F004021A60F979BB7950
:1005440095481A4652001A44D3001A460B465B00DB
:100554000B449B01134403441B681868F979BB7965
:100564008D4C1A4652001A44D3001A460B465B00BF
:100574000B449B01134423441B6840F002021A609D
:1005840000BFF979BB7984481A4652001A44D30053
:100594001A460B465B000B449B01134403441B683F
:1005A4001C68FB6AD805F979BB797B4D1A46520061
:1005B4001A44D3001A460B465B000B449B011344B8
:1005C4002B441B6844EA00021A60F979BB7972482B
:1005D4001A4652001A44D3001A460B465B000B44D9
:1005E4009B01134403441B681C68FB6A5805F97992
:1005F400BB79694D1A4652001A44D3001A460B4679
:100604005B000B449B0113442B441B6844EA000227
:100614001A60F979BB7960481A4652001A44D3002B
:100624001A460B465B000B449B01134403441B68AE
:100634001868F979BB79584C1A4652001A44D30009
:100644001A460B465B000B449B01134423441B686E
:1006540040F400721A60F979BB794F481A46520087
:100664001A44D3001A460B465B000B449B01134407
:1006740003441B681868F979BB79474C1A46520041
:100684001A44D3001A460B465B000B449B011344E7
:1006940023441B6840F480621A60F979BB793E48B0
:1006A4001A4652001A44D3001A460B465B000B4408
:1006B4009B01134403441B681868F979BB79364CD1
:1006C4001A4652001A44D3001A460B465B000B44E8
:1006D4009B01134423441B6840F010021A60F9790B
:1006E400BB792D481A4652001A44D3001A460B46C9
:1006F4005B000B449B01134403441B681868F9799D
:10070400BB79254C1A4652001A44D3001A460B46AC
:100714005B000B449B01134423441B6840F0040218
:100724001A60F979BB791C481A4652001A44D3005E
:100734001A460B465B000B449B01134403440833E5
:100744001B683A681A60F979BB7913481A46520053
:100754001A44D3001A460B465B000B449B01134416
:1007640003440C331B68BA691A60F979BB790A48E7
:100774001A4652001A44D3001A460B465B000B4437
:100784009B011344034404331B68FA691A6000BFD5
:100794000C37BD46B0BC70470000002090B482B056
:1007A40000AF03460A46FB711346BB71BB79032BAA
:1007B40017D8FB792A4A1B01134408331B681A68AB
:1007C400BB79284951F823303D2101FA03F3184637
:1007D400FB7923491B010B4408331B6802431A604D
:1007E40017E0FB791E4A1B0113440C331B681A687B
:1007F400BB79043B1B4951F823303D2101FA03F333
:100804001846FB7916491B010B440C331B68024341
:100814001A60F979BB7914481A4652001A44D30075
:100824001A460B465B000B449B01134403441B68AC
:100834001868F979BB790C4C1A4652001A44D30053
:100844001A460B465B000B449B01134423441B686C
:1008540040F001021A6000BF0837BD4690BC7047E3
:1008640080010020A00100200000002080B400AF1F
:100874001B4B1B6803F02003002B03D0194B0522EC
:100884001A7026E0164B1B6803F00803002B03D0F4
:10089400144B03221A701CE0114B1B6803F0100365
:1008A400002B03D00F4B04221A7012E00C4B1B6870
:1008B40003F00403002B03D00A4B02221A7008E051
:1008C400074B1B6803F00103002B02D0054B0122E8
:1008D4001A70044B1B781846BD465DF8047B7047BC
:1008E40000640240F401002080B500AFFFF7BEFFB2
:1008F40003461A46074B1A70064B1B78052B07D183
:1009040000F0BCF9044B1B68034A43F02003136056
:1009140000BF80BDF40100200864024080B483B0AD
:1009240000AF0346FB71084B1B68FA79012101FAF9
:1009340002F21146044A0B43136000BF0C37BD4654
:100944005DF8047B704700BF3038024090B482B039
:1009540000AF0446084611461A462346FB71034677
:10096400BB710B467B7113463B71FA7956491346AA
:100974009B0013449B000B441B681968BB795B0004
:10098400032202FA03F3DB431C46FA794E4813466A
:100994009B0013449B0003441B6801EA04021A6091
:1009A400FA79494913469B0013449B000B441B6886
:1009B40019687A79BB795B0002FA03F31C46FA7969
:1009C400414813469B0013449B0003441B6841EABF
:1009D40004021A60FA793C4913469B0013449B00B5
:1009E4000B4404331B681968BB79012202FA03F330
:1009F400DB431C46FA79344813469B0013449B009E
:100A0400034404331B6801EA04021A60FA792E498C
:100A140013469B0013449B000B4404331B68196862
:100A24003B7903F00102BB7902FA03F31C46FA791D
:100A3400254813469B0013449B00034404331B685E
:100A440041EA04021A60FA791F4913469B001344D1
:100A54009B000B4408331B681968BB795B000322B5
:100A640002FA03F3DB431C46FA79174813469B004A
:100A740013449B00034408331B6801EA04021A6010
:100A8400FA79114913469B0013449B000B44083325
:100A94001B6819683B795B1003F00302BB795B00A8
:100AA40002FA03F31C46FA79074813469B001344E1
:100AB4009B00034408331B6841EA04021A6000BF28
:100AC4000837BD4690BC7047B001002090B484B094
:100AD40000AF0346FB710B46BB7113467B71FA7979
:100AE4002C4913469B0013449B000B441B681B6852
:100AF400BA795200032101FA02F21A40BB795B0071
:100B040022FA03F3012B3DD17B79002B1BD0FA7918
:100B1400204913469B0013449B000B4410331B686D
:100B24001968BB79012202FA03F31C46FA791948C1
:100B340013469B0013449B00034410331B6841EA93
:100B440004021A601BE0FA79124913469B0013440D
:100B54009B000B4410331B681968BB79012202FA0D
:100B640003F3DB431C46FA790A4813469B001344FB
:100B74009B00034410331B6801EA04021A6000233B
:100B8400FB7301E00123FB73FB7B18461037BD4662
:100B940090BC7047B001002080B483B000AF03461E
:100BA4000A46FB711346BB71FB79002B06D1BB7956
:100BB4000B3301229A40094B1A6008E0FB79012BA0
:100BC40005D1BB79183301229A40054B1A6000BF46
:100BD4000C37BD465DF8047B704700BF00E100E0C0
:100BE40004E100E080B588B006AF00237B6010E02C
:100BF4007B680133642202FB03F21E497B6841F8DF
:100C040023201D4A7B68002142F823107B680133AE
:100C14007B607B68632BEBD90020FFF77FFE00230A
:100C2400012200210020FFF791FE0023012202216E
:100C34000020FFF78BFE00210120FFF7C9FA0123F2
:100C44000593012304930223039302230293642351
:100C54000193094B0093074B002200210120FFF769
:100C6400D3FA00210120FFF797FF00210120FFF7AD
:100C740095FDFEE7F80100208803002080B500AF51
:100C8400124B1A68124B1B689A4212D10F4BD3F8BD
:100C94008C210F4BD3F88C319A420AD100220021C7
:100CA4000020FFF713FF012202210020FFF70EFFAF
:100CB4000AE0012200210020FFF708FF00220221A0
:100CC4000020FFF703FF00BF00BF80BDF801002034
:100CD4008803002080B400AF064BD3F88830054A5F
:100CE40043F47003C2F8883000BFBD465DF8047B4E
:100CF400704700BF00ED00E0DFF834D00D480E4926
:100D04000E4A002302E0D458C4500433C4188C4261
:100D1400F9D30B4A0B4C002301E013600432A242C6
:100D2400FBD3FFF7D7FF00F011F8FFF75BFF704725
:100D34000000012000000020D8010020B80D0008A8
:100D4400D801002018050020FEE7000070B50D4D05
:100D54000D4C641BA4100026A64209D10B4D0C4C6B
:100D640000F018F8641BA4100026A64205D170BD3B
:100D740055F8043B98470136EEE755F8043B98478D
:100D84000136F2E7B00D0008B00D0008B00D000800
:100D9400B40D0008F8B500BFF8BC08BC9E46704707
:0C0DA400F8B500BFF8BC08BC9E467047C4
:040DB000B90100087D
:040DB400950100089D
:100DB8001060024014600240186002401C6002404B
:100DC8002060024024600240286002402C600240FB
:100DD8003060024034600240386002403C600240AB
:100DE8004060024044600240486002404C6002405B
:100DF8005060024054600240586002405C6002400B
:100E08006060024064600240686002406C600240BA
:100E18007060024074600240786002407C6002406A
:100E28008060024084600240886002408C6002401A
:100E38009060024094600240986002409C600240CA
:100E4800A0600240A4600240A8600240AC6002407A
:100E5800B0600240B4600240B8600240BC6002402A
:100E6800C0600240C4600240C8600240CC600240DA
:100E78001064024014640240186402401C6402407A
:100E88002064024024640240286402402C6402402A
:100E98003064024034640240386402403C640240DA
:100EA8004064024044640240486402404C6402408A
:100EB8005064024054640240586402405C6402403A
:100EC8006064024064640240686402406C640240EA
:100ED8007064024074640240786402407C6402409A
:100EE8008064024084640240886402408C6402404A
:100EF8009064024094640240986402409C640240FA
:100F0800A0640240A4640240A8640240AC640240A9
:100F1800B0640240B4640240B8640240BC64024059
:100F2800C0640240C4640240C8640240CC64024009
:100F38000060024004600240086002400C60024009
:100F48000064024004640240086402400C640240E9
:100F5800000000000600000010000000160000005D
:100F680000000240040002400C0002401000024051
:100F78001400024000040240040402400C04024031
:080F88001004024014040240B1
:0400000508000CFDE6
:00000001FF
