:020000040800F2
:10000000000001206D020008BD020008BD020008CA
:10001000BD020008BD020008BD020008000000008B
:10002000000000000000000000000000BD02000809
:10003000BD02000800000000BD020008BD0200086B
:10004000BD020008BD020008BD020008BD02000894
:10005000BD020008BD020008BD020008BD02000884
:10006000BD020008BD020008BD020008BD02000874
:10007000BD020008BD020008BD020008BD02000864
:10008000BD020008BD020008BD020008000000001B
:10009000000000000000000000000000BD02000899
:1000A000BD020008BD020008BD020008BD02000834
:1000B000BD020008BD020008BD020008BD02000824
:1000C000BD020008BD020008BD020008BD02000814
:1000D000BD020008BD020008BD02000800000000CB
:1000E000BD020008BD020008BD02000800000000BB
:1000F000000000000000000000000000BD02000839
:1001000000000000BD020008BD020008BD0200089A
:1001100000000000000000000000000000000000DF
:10012000BD020008BD020008BD020008BD020008B3
:10013000BD020008000000000000000000000000F8
:10014000000000000000000000000000BD020008E8
:10015000BD020008BD020008BD020008BD02000883
:10016000BD020008BD020008000000000000000001
:10017000000000000000000000000000000000007F
:1001800000000000BD0200080000000000000000A8
:04019000BD020008A4
:1001940010B5054C237833B9044B13B10448AFF3BD
:1001A40000800123237010BD2800002000000000FF
:1001B400C805000808B5034B1BB103490348AFF356
:1001C400008008BD000000002C000020C8050008C5
:1001D40080B584B000AF0023FB6008E0F968002319
:1001E4000122412000F07EF8FB680133FB60FB68CC
:1001F400062BF3DD0023BB601CE000237B6010E0D2
:1002040079680E4ABB6852F823207B6822FA03F30C
:1002140003F001031A46412000F046F97B680133DC
:100224007B607B68062BEBDD054800F046F8BB6875
:100234000133BB60BB68092BDFDDDBE70000002076
:1002440040420F0080B400AF064BD3F88830054A13
:1002540043F47003C2F8883000BFBD465DF8047BE8
:10026400704700BF00ED00E0DFF834D00D480E49C0
:100274000E4A002302E0D458C4500433C4188C42FC
:10028400F9D30B4A0B4C002301E013600432A24261
:10029400FBD3FFF7D7FF00F071F9FFF799FF704721
:1002A400000001200000002028000020E8050008CC
:1002B4002800002044000020FEE780B485B000AF91
:1002C40078600023FB6002E0FB680133FB60FA689E
:1002D4007B689A42F8DB00BF00BF1437BD465DF867
:1002E400047B704780B485B000AFB9607A603B602E
:1002F4000346FB73FB7B412B02D0422B64D0C7E047
:10030400664B1B6B654A43F0010313637B68032B45
:100314003BD801A252F823F02D030008470300083C
:100324005F030008770300085D4B1B68BA6852003E
:10033400032101FA02F2D2431146594A0B401360D9
:1003440023E0574B1B68BA685200012101FA02F2FC
:100354001146534A0B43136017E0514B1B68BA68AC
:100364005200022101FA02F211464D4A0B43136076
:100374000BE04B4B1B68BA685200032101FA02F2EE
:100384001146474A0B43136000BF3B68002B03D060
:100394003B68012B0CD07BE0414B5B680121BA68C0
:1003A40001FA02F2D24311463D4A0B4053600AE07F
:1003B4003B4B5B680121BA6801FA02F21146384AE4
:1003C4000B43536000BF63E0344B1B6B334A43F071
:1003D400020313637B68032B3BD801A252F823F07A
:1003E400F50300080F040008270400083F04000870
:1003F4002C4B1B68BA685200032101FA02F2D24363
:100404001146284A0B40136023E0264B1B68BA6848
:100414005200012101FA02F21146224A0B431360F1
:1004240017E0204B1B68BA685200022101FA02F25D
:1004340011461C4A0B4313600BE01A4B1B68BA6845
:100444005200032101FA02F21146164A0B431360CB
:1004540000BF3B68002B03D03B68012B0CD016E097
:100464000F4B5B680121BA6801FA02F2D2431146CC
:100474000B4A0B4053600AE0094B5B680121BA68E0
:1004840001FA02F21146064A0B43536000BF00BF53
:1004940000BF1437BD465DF8047B70470038024046
:1004A400000002400004024080B487B000AF03465D
:1004B400B9607A60FB73FB7B412B02D0422B29D0BD
:1004C40051E02C4B1A68BB685B0022FA03F303F07B
:1004D4000103002B1BD07B68002B0AD0254B5B69E2
:1004E4000121BA6801FA02F21146224A0B43536110
:1004F4000AE0204B5B690121BA6801FA02F2D24397
:1005040011461C4A0B4053610023FB752BE0012369
:10051400FB7528E0174B1A68BB685B0022FA03F3EB
:1005240003F00103002B1BD07B68002B0AD0124B75
:100534005B690121BA6801FA02F211460E4A0B43C3
:1005440053610AE00C4B5B690121BA6801FA02F2BB
:10055400D2431146084A0B4053610023FB7501E066
:100564000123FB7500BFFB7D18461C37BD465DF8B3
:10057400047B7047000002400004024070B50D4D3A
:100584000D4C641BA4100026A64209D10B4D0C4C43
:1005940000F018F8641BA4100026A64205D170BD13
:1005A40055F8043B98470136EEE755F8043B984765
:1005B4000136F2E7E0050008E0050008E005000860
:1005C400E4050008F8B500BFF8BC08BC9E467047B7
:0C05D400F8B500BFF8BC08BC9E4670479C
:0405E000B901000855
:0405E4009501000875
:1005E8003F000000060000005B0000004F00000014
:1005F800660000006D0000007D000000070000009C
:080608007F0000006F000000FC
:040000050800026D80
:00000001FF
