:020000040800F2
:1000000000000120A9040008F9040008F904000810
:10001000F9040008F9040008F904000800000000D1
:10002000000000000000000000000000F9040008CB
:10003000F904000800000000F9040008F9040008B1
:10004000F9040008F9040008F9040008F90400089C
:10005000F9040008F9040008F9040008F90400088C
:10006000F9040008F9040008F9040008F90400087C
:10007000F9040008F9040008F9040008F90400086C
:10008000F9040008F9040008F90400080000000061
:10009000000000000000000000000000F90400085B
:1000A000F9040008F9040008F9040008F90400083C
:1000B000F9040008F9040008F9040008F90400082C
:1000C000F9040008F9040008F9040008F90400081C
:1000D000F9040008F9040008F90400080000000011
:1000E000F9040008F9040008F90400080000000001
:1000F000000000000000000000000000F9040008FB
:1001000000000000F9040008F9040008F9040008E0
:1001100000000000000000000000000000000000DF
:10012000F9040008F9040008F9040008F9040008BB
:10013000F9040008000000000000000000000000BA
:10014000000000000000000000000000F9040008AA
:10015000F9040008F9040008F9040008F90400088B
:10016000F9040008F9040008000000000000000085
:10017000000000000000000000000000000000007F
:1001800000000000F904000800000000000000006A
:04019000F904000866
:1001940010B5054C237833B9044B13B10448AFF3BD
:1001A40000800123237010BD2800002000000000FF
:1001B4004405000808B5034B1BB103490348AFF3DA
:1001C400008008BD000000002C0000204405000849
:1001D40080B483B000AF0346FB71084B1B68FA7907
:1001E400012101FA02F21146044A0B43136000BFD5
:1001F4000C37BD465DF8047B704700BF30380240C1
:1002040090B482B000AF0446084611461A4623460D
:10021400FB710346BB710B467B7113463B71FA7944
:10022400564913469B0013449B000B441B681968F2
:10023400BB795B00032202FA03F3DB431C46FA7921
:100244004E4813469B0013449B0003441B6801EA79
:1002540004021A60FA79494913469B0013449B002F
:100264000B441B6819687A79BB795B0002FA03F3C3
:100274001C46FA79414813469B0013449B000344EF
:100284001B6841EA04021A60FA793C4913469B0050
:1002940013449B000B4404331B681968BB79012287
:1002A40002FA03F3DB431C46FA79344813469B00F5
:1002B40013449B00034404331B6801EA04021A60DC
:1002C400FA792E4913469B0013449B000B440433D4
:1002D4001B6819683B7903F00102BB7902FA03F346
:1002E4001C46FA79254813469B0013449B0003449B
:1002F40004331B6841EA04021A60FA791F49134661
:100304009B0013449B000B4408331B681968BB799A
:100314005B00032202FA03F3DB431C46FA79174815
:1003240013469B0013449B00034408331B6801EAF3
:1003340004021A60FA79114913469B0013449B0086
:100344000B4408331B6819683B795B1003F0030204
:10035400BB795B0002FA03F31C46FA79074813469B
:100364009B0013449B00034408331B6841EA0402C6
:100374001A6000BF0837BD4690BC704700000020DB
:1003840080B400AF054B1B68044A43F40033136088
:1003940000BFBD465DF8047B704700BF4038024093
:1003A40080B400AF164B1B68154A43F40053136026
:1003B400144B40F283621A60114B1B68104A43F0DD
:1003C400080313600E4B1B680D4A23F4805313601B
:1003D4000B4B1B680A4A23F4004313600A4B1B6847
:1003E400094A23F440531360084B1B68074A43F43B
:1003F400E063136000BFBD465DF8047B704700BF37
:100404000C440040084400401044004020000240D6
:1004140080B483B000AF78600CE07B681A780B4B33
:100424001A607B6801337B60094B1B6803F040034F
:10043400002BF2D17B681B78002BF5D100BF00BFE5
:100444000C37BD465DF8047B704700BF0444004090
:100454000044004080B500AF0020FFF7B9FE002340
:10046400022202210020FFF7CBFEFFF789FFFFF7EE
:1004740097FF0248FFF7CCFFFEE700BF5C050008CA
:1004840080B400AF064BD3F88830054A43F47003B8
:10049400C2F8883000BFBD465DF8047B704700BFDA
:1004A40000ED00E0DFF834D00D480E490E4A002379
:1004B40002E0D458C4500433C4188C42F9D30B4A14
:1004C4000B4C002301E013600432A242FBD3FFF77C
:1004D400D7FF00F011F8FFF7BDFF704700000120BF
:1004E40000000020280000207405000828000020D7
:1004F40044000020FEE7000070B50D4D0D4C641B58
:10050400A4100026A64209D10B4D0C4C00F018F89B
:10051400641BA4100026A64205D170BD55F8043B07
:1005240098470136EEE755F8043B98470136F2E761
:100534006C0500086C0500086C05000870050008CF
:10054400F8B500BFF8BC08BC9E467047F8B500BFBC
:08055400F8BC08BC9E4670478C
:10055C0048656C6C6F20576F726C64210000000052
:04056C00B9010008C9
:0405700095010008E9
:1005740000000240040002400C000240100002404F
:100584001400024000040240040402400C0402402F
:080594001004024014040240AF
:04000005080004A942
:00000001FF
