:020000040800F2
:100000000000012081020008D1020008D10200088E
:10001000D1020008D1020008D1020008000000004F
:10002000000000000000000000000000D1020008F5
:10003000D102000800000000D1020008D10200082F
:10004000D1020008D1020008D1020008D102000844
:10005000D1020008D1020008D1020008D102000834
:10006000D1020008D1020008D1020008D102000824
:10007000D1020008D1020008D1020008D102000814
:10008000D1020008D1020008D102000800000000DF
:10009000000000000000000000000000D102000885
:1000A000D1020008D1020008D1020008D1020008E4
:1000B000D1020008D1020008D1020008D1020008D4
:1000C000D1020008D1020008D1020008D1020008C4
:1000D000D1020008D1020008D1020008000000008F
:1000E000D1020008D1020008D1020008000000007F
:1000F000000000000000000000000000D102000825
:1001000000000000D1020008D1020008D10200085E
:1001100000000000000000000000000000000000DF
:10012000D1020008D1020008D1020008D102000863
:10013000D1020008000000000000000000000000E4
:10014000000000000000000000000000D1020008D4
:10015000D1020008D1020008D1020008D102000833
:10016000D1020008D10200080000000000000000D9
:10017000000000000000000000000000000000007F
:1001800000000000D1020008000000000000000094
:04019000D102000890
:1001940010B5054C237833B9044B13B10448AFF3BD
:1001A40000800123237010BD000000200000000027
:1001B4001C03000808B5034B1BB103490348AFF304
:1001C400008008BD00000000040000201C0300089B
:1001D40080B485B000AF78600023FB6002E0FB6868
:1001E4000133FB60FA687B689A42F8DB00BF00BF0A
:1001F4001437BD465DF8047B7047000080B500AF3E
:10020400124B1B6B114A43F001031363104B1B6821
:100214000F4A43F0010313600D4B5B680C4A23F053
:10022400010353600A4B5B69094A43F001035361BC
:100234000848FFF7CDFF064B5B69054A23F001032D
:1002440053610448FFF7C4FFECE700BF00380240E5
:100254000000024040420F0080B400AF064BD3F8C8
:100264008830054A43F47003C2F8883000BFBD46A5
:100274005DF8047B704700BF00ED00E0DFF834D088
:100284000D480E490E4A002302E0D458C4500433EA
:10029400C4188C42F9D30B4A0B4C002301E01360C1
:1002A4000432A242FBD3FFF7D7FF00F011F8FFF7A7
:1002B400A5FF70470000012000000020000000207E
:1002C4003C030008000000201C000020FEE70000A2
:1002D40070B50D4D0D4C641BA4100026A64209D127
:1002E4000B4D0C4C00F018F8641BA4100026A64219
:1002F40005D170BD55F8043B98470136EEE755F833
:10030400043B98470136F2E734030008340300083D
:100314003403000838030008F8B500BFF8BC08BC73
:100324009E467047F8B500BFF8BC08BC9E467047AF
:04033400B901000803
:040338009501000823
:04000005080002816C
:00000001FF
