:020000040800F2
:1000000000000120A9020008F9020008F902000816
:10001000F9020008F9020008F902000800000000D7
:10002000000000000000000000000000F9020008CD
:10003000F902000800000000F9020008F9020008B7
:10004000F9020008F9020008F9020008F9020008A4
:10005000F9020008F9020008F9020008F902000894
:10006000F9020008F9020008F9020008F902000884
:10007000F9020008F9020008F9020008F902000874
:10008000F9020008F9020008F90200080000000067
:10009000000000000000000000000000F90200085D
:1000A000F9020008F9020008F9020008F902000844
:1000B000F9020008F9020008F9020008F902000834
:1000C000F9020008F9020008F9020008F902000824
:1000D000F9020008F9020008F90200080000000017
:1000E000F9020008F9020008F90200080000000007
:1000F000000000000000000000000000F9020008FD
:1001000000000000F9020008F9020008F9020008E6
:1001100000000000000000000000000000000000DF
:10012000F9020008F9020008F9020008F9020008C3
:10013000F9020008000000000000000000000000BC
:10014000000000000000000000000000F9020008AC
:10015000F9020008F9020008F9020008F902000893
:10016000F9020008F9020008000000000000000089
:10017000000000000000000000000000000000007F
:1001800000000000F902000800000000000000006C
:04019000F902000868
:1001940010B5054C237833B9044B13B10448AFF3BD
:1001A40000800123237010BD000000200000000027
:1001B400E006000808B5034B1BB103490348AFF33D
:1001C400008008BD0000000004000020E0060008D4
:1001D40080B582B000AF002301220021412000F04D
:1001E4009FF8012300220321422000F099F8002304
:1001F40001220521422000F093F800230122062168
:10020400422000F08DF8002301220721422000F053
:1002140087F8002301220121412000F0F3F9032192
:10022400422000F0ADF90346FB714FF47A7000F000
:1002340062F8FB79002BECD00321422000F0A0F9F6
:100244000346002BE5D1052307220021422000F0BC
:10025400D9F90A4B1B681A4605230121422000F0F4
:10026400D1F9064B1B680133044A1360034B1B6826
:10027400082BCED1014B01221A60CAE71C000020D2
:1002840080B400AF064BD3F88830054A43F47003BA
:10029400C2F8883000BFBD465DF8047B704700BFDC
:1002A40000ED00E0DFF834D00D480E490E4A00237B
:1002B40002E0D458C4500433C4188C42F9D30B4A16
:1002C4000B4C002301E013600432A242FBD3FFF77E
:1002D400D7FF00F0DFF9FFF77BFF70470000012034
:1002E400000000200000002000070008000000209B
:1002F40020000020FEE780B485B000AF78600023C2
:10030400FB6002E0FB680133FB60FA687B689A4299
:10031400F8DB00BF00BF1437BD465DF8047B7047AF
:1003240080B485B000AFB9607A603B600346FB736C
:10033400FB7B412B03D0422B00F08C8015E18D4BCD
:100344001B6B8C4A43F0010313637B68032B3CD87B
:1003540001A252F823F000BF6D03000887030008D0
:100364009F030008B7030008834B1B68BA68520058
:10037400032101FA02F2D24311467F4A0B40136073
:1003840023E07D4B1B68BA685200012101FA02F296
:100394001146794A0B43136017E0774B1B68BA6820
:1003A4005200022101FA02F21146734A0B43136010
:1003B4000BE0714B1B68BA685200032101FA02F288
:1003C40011466D4A0B43136000BF7B68012B1DD19E
:1003D4003B68002B03D03B68012B0CD0C4E0664B78
:1003E4005B680121BA6801FA02F2D2431146624AFB
:1003F4000B4053602DE0604B5B680121BA6801FA41
:1004040002F211465C4A0B43536022E07B68002BE6
:100414001ED13B68012B03D03B68022B0CD0A3E018
:10042400564BDB68BA685200012101FA02F2114608
:10043400524A0B43D3600CE0504BDB68BA6852005D
:10044400022101FA02F211464C4A0B43D36000E048
:1004540000BF89E0474B1B6B464A43F0020313631A
:100464007B68032B3BD801A252F823F081040008D7
:100474009B040008B3040008CB0400083F4B1B682E
:10048400BA685200032101FA02F2D24311463B4AF0
:100494000B40136023E0394B1B68BA6852000121FA
:1004A40001FA02F21146354A0B43136017E0334B4D
:1004B4001B68BA685200022101FA02F211462F4A5F
:1004C4000B4313600BE02D4B1B68BA6852000321E9
:1004D40001FA02F21146294A0B43136000BF7B68FC
:1004E400012B1DD13B68002B03D03B68012B0CD0A2
:1004F40039E0214B5B680121BA6801FA02F2D24368
:1005040011461D4A0B4053602DE01B4B5B680121D3
:10051400BA6801FA02F21146174A0B43536022E00B
:100524007B68002B1ED13B68012B03D03B68022B58
:100534000CD018E0114BDB68BA685200012101FAB3
:1005440002F211460D4A0B43D3600CE00B4BDB68FF
:10055400BA685200022101FA02F21146074A0B431B
:10056400D36000E000BF00BF00BF1437BD465DF894
:10057400047B70470038024000000240000402403F
:1005840080B485B000AF03463960FB71FB79412B21
:1005940002D0422B14D02AE0184B1A683B685B0047
:1005A40022FA03F303F00103002B1DD1144B1A6943
:1005B4003B6822FA03F3DBB203F00103FB7313E09D
:1005C4000E4B1A683B685B0022FA03F303F0010345
:1005D400002B0BD10A4B1A693B6822FA03F3DBB2F6
:1005E40003F00103FB7301E000BF00E000BFFB7BED
:1005F40018461437BD465DF8047B7047000002407E
:100604000004024080B485B000AFB9607A603B60FA
:100614000346FB73FB7B412B02D0422B18D02FE007
:10062400BB68002B09D0194B5A6979683B6801FAF9
:1006340003F3164913434B6122E0144B5A6979685A
:100644003B6801FA03F3DB43104913404B6117E0A5
:10065400BB68002B09D00E4B5A6979683B6801FAD4
:1006640003F30B4913434B6109E0094B5A69796859
:100674003B6801FA03F3DB43054913404B6100BFB8
:1006840000BF1437BD465DF8047B7047000002408C
:100694000004024070B50D4D0D4C641BA4100026DF
:1006A400A64209D10B4D0C4C00F018F8641BA410A1
:1006B4000026A64205D170BD55F8043B9847013683
:1006C400EEE755F8043B98470136F2E7F8060008D0
:1006D400F8060008F8060008FC060008F8B500BF94
:1006E400F8BC08BC9E467047F8B500BFF8BC08BC0F
:0406F4009E46704767
:0406F800B90100083C
:0406FC00950100085C
:04000005080002A944
:00000001FF
